{
  "_format": "hh-sol-artifact-1",
  "contractName": "EvitaUpgradable",
  "sourceName": "contracts/EvitaUpgradable.sol",
  "abi": [
    {
      "inputs": [],
      "stateMutability": "nonpayable",
      "type": "constructor"
    },
    {
      "anonymous": false,
      "inputs": [
        {
          "indexed": true,
          "internalType": "address",
          "name": "owner",
          "type": "address"
        },
        {
          "indexed": true,
          "internalType": "address",
          "name": "spender",
          "type": "address"
        },
        {
          "indexed": false,
          "internalType": "uint256",
          "name": "value",
          "type": "uint256"
        }
      ],
      "name": "Approval",
      "type": "event"
    },
    {
      "anonymous": false,
      "inputs": [
        {
          "indexed": false,
          "internalType": "uint8",
          "name": "version",
          "type": "uint8"
        }
      ],
      "name": "Initialized",
      "type": "event"
    },
    {
      "anonymous": false,
      "inputs": [
        {
          "indexed": false,
          "internalType": "address",
          "name": "account",
          "type": "address"
        }
      ],
      "name": "Paused",
      "type": "event"
    },
    {
      "anonymous": false,
      "inputs": [
        {
          "indexed": true,
          "internalType": "bytes32",
          "name": "role",
          "type": "bytes32"
        },
        {
          "indexed": true,
          "internalType": "bytes32",
          "name": "previousAdminRole",
          "type": "bytes32"
        },
        {
          "indexed": true,
          "internalType": "bytes32",
          "name": "newAdminRole",
          "type": "bytes32"
        }
      ],
      "name": "RoleAdminChanged",
      "type": "event"
    },
    {
      "anonymous": false,
      "inputs": [
        {
          "indexed": true,
          "internalType": "bytes32",
          "name": "role",
          "type": "bytes32"
        },
        {
          "indexed": true,
          "internalType": "address",
          "name": "account",
          "type": "address"
        },
        {
          "indexed": true,
          "internalType": "address",
          "name": "sender",
          "type": "address"
        }
      ],
      "name": "RoleGranted",
      "type": "event"
    },
    {
      "anonymous": false,
      "inputs": [
        {
          "indexed": true,
          "internalType": "bytes32",
          "name": "role",
          "type": "bytes32"
        },
        {
          "indexed": true,
          "internalType": "address",
          "name": "account",
          "type": "address"
        },
        {
          "indexed": true,
          "internalType": "address",
          "name": "sender",
          "type": "address"
        }
      ],
      "name": "RoleRevoked",
      "type": "event"
    },
    {
      "anonymous": false,
      "inputs": [
        {
          "indexed": true,
          "internalType": "address",
          "name": "from",
          "type": "address"
        },
        {
          "indexed": true,
          "internalType": "address",
          "name": "to",
          "type": "address"
        },
        {
          "indexed": false,
          "internalType": "uint256",
          "name": "value",
          "type": "uint256"
        }
      ],
      "name": "Transfer",
      "type": "event"
    },
    {
      "anonymous": false,
      "inputs": [
        {
          "indexed": false,
          "internalType": "address",
          "name": "account",
          "type": "address"
        }
      ],
      "name": "Unpaused",
      "type": "event"
    },
    {
      "inputs": [],
      "name": "DEFAULT_ADMIN_ROLE",
      "outputs": [
        {
          "internalType": "bytes32",
          "name": "",
          "type": "bytes32"
        }
      ],
      "stateMutability": "view",
      "type": "function"
    },
    {
      "inputs": [],
      "name": "MINTER_ROLE",
      "outputs": [
        {
          "internalType": "bytes32",
          "name": "",
          "type": "bytes32"
        }
      ],
      "stateMutability": "view",
      "type": "function"
    },
    {
      "inputs": [],
      "name": "PAUSER_ROLE",
      "outputs": [
        {
          "internalType": "bytes32",
          "name": "",
          "type": "bytes32"
        }
      ],
      "stateMutability": "view",
      "type": "function"
    },
    {
      "inputs": [
        {
          "internalType": "address",
          "name": "owner",
          "type": "address"
        },
        {
          "internalType": "address",
          "name": "spender",
          "type": "address"
        }
      ],
      "name": "allowance",
      "outputs": [
        {
          "internalType": "uint256",
          "name": "",
          "type": "uint256"
        }
      ],
      "stateMutability": "view",
      "type": "function"
    },
    {
      "inputs": [
        {
          "internalType": "address",
          "name": "spender",
          "type": "address"
        },
        {
          "internalType": "uint256",
          "name": "amount",
          "type": "uint256"
        }
      ],
      "name": "approve",
      "outputs": [
        {
          "internalType": "bool",
          "name": "",
          "type": "bool"
        }
      ],
      "stateMutability": "nonpayable",
      "type": "function"
    },
    {
      "inputs": [
        {
          "internalType": "address",
          "name": "account",
          "type": "address"
        }
      ],
      "name": "balanceOf",
      "outputs": [
        {
          "internalType": "uint256",
          "name": "",
          "type": "uint256"
        }
      ],
      "stateMutability": "view",
      "type": "function"
    },
    {
      "inputs": [
        {
          "internalType": "uint256",
          "name": "amount",
          "type": "uint256"
        }
      ],
      "name": "burn",
      "outputs": [],
      "stateMutability": "nonpayable",
      "type": "function"
    },
    {
      "inputs": [
        {
          "internalType": "address",
          "name": "account",
          "type": "address"
        },
        {
          "internalType": "uint256",
          "name": "amount",
          "type": "uint256"
        }
      ],
      "name": "burnFrom",
      "outputs": [],
      "stateMutability": "nonpayable",
      "type": "function"
    },
    {
      "inputs": [],
      "name": "decimals",
      "outputs": [
        {
          "internalType": "uint8",
          "name": "",
          "type": "uint8"
        }
      ],
      "stateMutability": "view",
      "type": "function"
    },
    {
      "inputs": [
        {
          "internalType": "address",
          "name": "spender",
          "type": "address"
        },
        {
          "internalType": "uint256",
          "name": "subtractedValue",
          "type": "uint256"
        }
      ],
      "name": "decreaseAllowance",
      "outputs": [
        {
          "internalType": "bool",
          "name": "",
          "type": "bool"
        }
      ],
      "stateMutability": "nonpayable",
      "type": "function"
    },
    {
      "inputs": [
        {
          "internalType": "bytes32",
          "name": "role",
          "type": "bytes32"
        }
      ],
      "name": "getRoleAdmin",
      "outputs": [
        {
          "internalType": "bytes32",
          "name": "",
          "type": "bytes32"
        }
      ],
      "stateMutability": "view",
      "type": "function"
    },
    {
      "inputs": [
        {
          "internalType": "bytes32",
          "name": "role",
          "type": "bytes32"
        },
        {
          "internalType": "address",
          "name": "account",
          "type": "address"
        }
      ],
      "name": "grantRole",
      "outputs": [],
      "stateMutability": "nonpayable",
      "type": "function"
    },
    {
      "inputs": [
        {
          "internalType": "bytes32",
          "name": "role",
          "type": "bytes32"
        },
        {
          "internalType": "address",
          "name": "account",
          "type": "address"
        }
      ],
      "name": "hasRole",
      "outputs": [
        {
          "internalType": "bool",
          "name": "",
          "type": "bool"
        }
      ],
      "stateMutability": "view",
      "type": "function"
    },
    {
      "inputs": [
        {
          "internalType": "address",
          "name": "spender",
          "type": "address"
        },
        {
          "internalType": "uint256",
          "name": "addedValue",
          "type": "uint256"
        }
      ],
      "name": "increaseAllowance",
      "outputs": [
        {
          "internalType": "bool",
          "name": "",
          "type": "bool"
        }
      ],
      "stateMutability": "nonpayable",
      "type": "function"
    },
    {
      "inputs": [],
      "name": "initialize",
      "outputs": [],
      "stateMutability": "nonpayable",
      "type": "function"
    },
    {
      "inputs": [
        {
          "internalType": "address",
          "name": "to",
          "type": "address"
        },
        {
          "internalType": "uint256",
          "name": "amount",
          "type": "uint256"
        }
      ],
      "name": "mint",
      "outputs": [],
      "stateMutability": "nonpayable",
      "type": "function"
    },
    {
      "inputs": [],
      "name": "name",
      "outputs": [
        {
          "internalType": "string",
          "name": "",
          "type": "string"
        }
      ],
      "stateMutability": "view",
      "type": "function"
    },
    {
      "inputs": [],
      "name": "pause",
      "outputs": [],
      "stateMutability": "nonpayable",
      "type": "function"
    },
    {
      "inputs": [],
      "name": "paused",
      "outputs": [
        {
          "internalType": "bool",
          "name": "",
          "type": "bool"
        }
      ],
      "stateMutability": "view",
      "type": "function"
    },
    {
      "inputs": [
        {
          "internalType": "bytes32",
          "name": "role",
          "type": "bytes32"
        },
        {
          "internalType": "address",
          "name": "account",
          "type": "address"
        }
      ],
      "name": "renounceRole",
      "outputs": [],
      "stateMutability": "nonpayable",
      "type": "function"
    },
    {
      "inputs": [
        {
          "internalType": "bytes32",
          "name": "role",
          "type": "bytes32"
        },
        {
          "internalType": "address",
          "name": "account",
          "type": "address"
        }
      ],
      "name": "revokeRole",
      "outputs": [],
      "stateMutability": "nonpayable",
      "type": "function"
    },
    {
      "inputs": [
        {
          "internalType": "bytes4",
          "name": "interfaceId",
          "type": "bytes4"
        }
      ],
      "name": "supportsInterface",
      "outputs": [
        {
          "internalType": "bool",
          "name": "",
          "type": "bool"
        }
      ],
      "stateMutability": "view",
      "type": "function"
    },
    {
      "inputs": [],
      "name": "symbol",
      "outputs": [
        {
          "internalType": "string",
          "name": "",
          "type": "string"
        }
      ],
      "stateMutability": "view",
      "type": "function"
    },
    {
      "inputs": [],
      "name": "totalSupply",
      "outputs": [
        {
          "internalType": "uint256",
          "name": "",
          "type": "uint256"
        }
      ],
      "stateMutability": "view",
      "type": "function"
    },
    {
      "inputs": [
        {
          "internalType": "address",
          "name": "to",
          "type": "address"
        },
        {
          "internalType": "uint256",
          "name": "amount",
          "type": "uint256"
        }
      ],
      "name": "transfer",
      "outputs": [
        {
          "internalType": "bool",
          "name": "",
          "type": "bool"
        }
      ],
      "stateMutability": "nonpayable",
      "type": "function"
    },
    {
      "inputs": [
        {
          "internalType": "address",
          "name": "from",
          "type": "address"
        },
        {
          "internalType": "address",
          "name": "to",
          "type": "address"
        },
        {
          "internalType": "uint256",
          "name": "amount",
          "type": "uint256"
        }
      ],
      "name": "transferFrom",
      "outputs": [
        {
          "internalType": "bool",
          "name": "",
          "type": "bool"
        }
      ],
      "stateMutability": "nonpayable",
      "type": "function"
    },
    {
      "inputs": [],
      "name": "unpause",
      "outputs": [],
      "stateMutability": "nonpayable",
      "type": "function"
    }
  ],
  "bytecode": "0x608060405234801561001057600080fd5b5061001961001e565b6100de565b600054610100900460ff161561008a5760405162461bcd60e51b815260206004820152602760248201527f496e697469616c697a61626c653a20636f6e747261637420697320696e697469604482015266616c697a696e6760c81b606482015260840160405180910390fd5b60005460ff90811610156100dc576000805460ff191660ff9081179091556040519081527f7f26b83ff96e1f2b6a682f133852f6798a09c465da95921460cefb38474024989060200160405180910390a15b565b6117fe806100ed6000396000f3fe608060405234801561001057600080fd5b50600436106101a95760003560e01c80635c975abb116100f9578063a217fddf11610097578063d539139311610071578063d53913931461035e578063d547741f14610385578063dd62ed3e14610398578063e63ab1e9146103ab57600080fd5b8063a217fddf14610330578063a457c2d714610338578063a9059cbb1461034b57600080fd5b80638129fc1c116100d35780638129fc1c146103055780638456cb591461030d57806391d148541461031557806395d89b411461032857600080fd5b80635c975abb146102be57806370a08231146102c957806379cc6790146102f257600080fd5b80632f2ff15d116101665780633950935111610140578063395093511461027d5780633f4ba83a1461029057806340c10f191461029857806342966c68146102ab57600080fd5b80632f2ff15d14610246578063313ce5671461025b57806336568abe1461026a57600080fd5b806301ffc9a7146101ae57806306fdde03146101d6578063095ea7b3146101eb57806318160ddd146101fe57806323b872dd14610210578063248a9ca314610223575b600080fd5b6101c16101bc36600461157d565b6103c0565b60405190151581526020015b60405180910390f35b6101de6103f7565b6040516101cd919061161c565b6101c16101f9366004611517565b610489565b6035545b6040519081526020016101cd565b6101c161021e3660046114db565b6104a1565b610202610231366004611541565b600090815260fb602052604090206001015490565b61025961025436600461155a565b6104c5565b005b604051601281526020016101cd565b61025961027836600461155a565b6104ef565b6101c161028b366004611517565b610572565b610259610594565b6102596102a6366004611517565b6105b7565b6102596102b9366004611541565b6105eb565b60975460ff166101c1565b6102026102d736600461148d565b6001600160a01b031660009081526033602052604090205490565b610259610300366004611517565b6105f5565b61025961060a565b6102596107bb565b6101c161032336600461155a565b6107db565b6101de610806565b610202600081565b6101c1610346366004611517565b610815565b6101c1610359366004611517565b610890565b6102027f9f2df0fed2c77648de5860a4cc508cd0818c85b8b8a1ab4ceeef8d981c8956a681565b61025961039336600461155a565b61089e565b6102026103a63660046114a8565b6108c3565b6102026000805160206117a983398151915281565b60006001600160e01b03198216637965db0b60e01b14806103f157506301ffc9a760e01b6001600160e01b03198316145b92915050565b6060603680546104069061172b565b80601f01602080910402602001604051908101604052809291908181526020018280546104329061172b565b801561047f5780601f106104545761010080835404028352916020019161047f565b820191906000526020600020905b81548152906001019060200180831161046257829003601f168201915b5050505050905090565b6000336104978185856108ee565b5060019392505050565b6000336104af858285610a12565b6104ba858585610a8c565b506001949350505050565b600082815260fb60205260409020600101546104e081610c65565b6104ea8383610c6f565b505050565b6001600160a01b03811633146105645760405162461bcd60e51b815260206004820152602f60248201527f416363657373436f6e74726f6c3a2063616e206f6e6c792072656e6f756e636560448201526e103937b632b9903337b91039b2b63360891b60648201526084015b60405180910390fd5b61056e8282610cf5565b5050565b60003361049781858561058583836108c3565b61058f919061169a565b6108ee565b6000805160206117a98339815191526105ac81610c65565b6105b4610d5c565b50565b7f9f2df0fed2c77648de5860a4cc508cd0818c85b8b8a1ab4ceeef8d981c8956a66105e181610c65565b6104ea8383610dae565b6105b43382610e99565b610600823383610a12565b61056e8282610e99565b600054610100900460ff161580801561062a5750600054600160ff909116105b806106445750303b158015610644575060005460ff166001145b6106a75760405162461bcd60e51b815260206004820152602e60248201527f496e697469616c697a61626c653a20636f6e747261637420697320616c72656160448201526d191e481a5b9a5d1a585b1a5e995960921b606482015260840161055b565b6000805460ff1916600117905580156106ca576000805461ff0019166101001790555b61070e60405180604001604052806005815260200164457669746160d81b81525060405180604001604052806005815260200164455649544160d81b815250610ff3565b610716611024565b61071e61104d565b610726611024565b610731600033610c6f565b6107496000805160206117a983398151915233610c6f565b6107737f9f2df0fed2c77648de5860a4cc508cd0818c85b8b8a1ab4ceeef8d981c8956a633610c6f565b80156105b4576000805461ff0019169055604051600181527f7f26b83ff96e1f2b6a682f133852f6798a09c465da95921460cefb38474024989060200160405180910390a150565b6000805160206117a98339815191526107d381610c65565b6105b461107c565b600091825260fb602090815260408084206001600160a01b0393909316845291905290205460ff1690565b6060603780546104069061172b565b6000338161082382866108c3565b9050838110156108835760405162461bcd60e51b815260206004820152602560248201527f45524332303a2064656372656173656420616c6c6f77616e63652062656c6f77604482015264207a65726f60d81b606482015260840161055b565b6104ba82868684036108ee565b600033610497818585610a8c565b600082815260fb60205260409020600101546108b981610c65565b6104ea8383610cf5565b6001600160a01b03918216600090815260346020908152604080832093909416825291909152205490565b6001600160a01b0383166109505760405162461bcd60e51b8152602060048201526024808201527f45524332303a20617070726f76652066726f6d20746865207a65726f206164646044820152637265737360e01b606482015260840161055b565b6001600160a01b0382166109b15760405162461bcd60e51b815260206004820152602260248201527f45524332303a20617070726f766520746f20746865207a65726f206164647265604482015261737360f01b606482015260840161055b565b6001600160a01b0383811660008181526034602090815260408083209487168084529482529182902085905590518481527f8c5be1e5ebec7d5bd14f71427d1e84f3dd0314c0f7b2291e5b200ac8c7c3b925910160405180910390a3505050565b6000610a1e84846108c3565b90506000198114610a865781811015610a795760405162461bcd60e51b815260206004820152601d60248201527f45524332303a20696e73756666696369656e7420616c6c6f77616e6365000000604482015260640161055b565b610a8684848484036108ee565b50505050565b6001600160a01b038316610af05760405162461bcd60e51b815260206004820152602560248201527f45524332303a207472616e736665722066726f6d20746865207a65726f206164604482015264647265737360d81b606482015260840161055b565b6001600160a01b038216610b525760405162461bcd60e51b815260206004820152602360248201527f45524332303a207472616e7366657220746f20746865207a65726f206164647260448201526265737360e81b606482015260840161055b565b610b5d8383836110b9565b6001600160a01b03831660009081526033602052604090205481811015610bd55760405162461bcd60e51b815260206004820152602660248201527f45524332303a207472616e7366657220616d6f756e7420657863656564732062604482015265616c616e636560d01b606482015260840161055b565b6001600160a01b03808516600090815260336020526040808220858503905591851681529081208054849290610c0c90849061169a565b92505081905550826001600160a01b0316846001600160a01b03167fddf252ad1be2c89b69c2b068fc378daa952ba7f163c4a11628f55a4df523b3ef84604051610c5891815260200190565b60405180910390a3610a86565b6105b481336110c1565b610c7982826107db565b61056e57600082815260fb602090815260408083206001600160a01b03851684529091529020805460ff19166001179055610cb13390565b6001600160a01b0316816001600160a01b0316837f2f8788117e7eff1d82e926ec794901d17c78024a50270940304540a733656f0d60405160405180910390a45050565b610cff82826107db565b1561056e57600082815260fb602090815260408083206001600160a01b0385168085529252808320805460ff1916905551339285917ff6391f5c32d9c69d2a47ea670b442974b53935d1edc7fd64eb21e047a839171b9190a45050565b610d64611125565b6097805460ff191690557f5db9ee0a495bf2e6ff9c91a7834c1ba4fdd244a5e8aa4e537bd38aeae4b073aa335b6040516001600160a01b03909116815260200160405180910390a1565b6001600160a01b038216610e045760405162461bcd60e51b815260206004820152601f60248201527f45524332303a206d696e7420746f20746865207a65726f206164647265737300604482015260640161055b565b610e10600083836110b9565b8060356000828254610e22919061169a565b90915550506001600160a01b03821660009081526033602052604081208054839290610e4f90849061169a565b90915550506040518181526001600160a01b038316906000907fddf252ad1be2c89b69c2b068fc378daa952ba7f163c4a11628f55a4df523b3ef9060200160405180910390a35050565b6001600160a01b038216610ef95760405162461bcd60e51b815260206004820152602160248201527f45524332303a206275726e2066726f6d20746865207a65726f206164647265736044820152607360f81b606482015260840161055b565b610f05826000836110b9565b6001600160a01b03821660009081526033602052604090205481811015610f795760405162461bcd60e51b815260206004820152602260248201527f45524332303a206275726e20616d6f756e7420657863656564732062616c616e604482015261636560f01b606482015260840161055b565b6001600160a01b0383166000908152603360205260408120838303905560358054849290610fa89084906116d1565b90915550506040518281526000906001600160a01b038516907fddf252ad1be2c89b69c2b068fc378daa952ba7f163c4a11628f55a4df523b3ef9060200160405180910390a3505050565b600054610100900460ff1661101a5760405162461bcd60e51b815260040161055b9061164f565b61056e828261116e565b600054610100900460ff1661104b5760405162461bcd60e51b815260040161055b9061164f565b565b600054610100900460ff166110745760405162461bcd60e51b815260040161055b9061164f565b61104b6111bc565b6110846111ef565b6097805460ff191660011790557f62e78cea01bee320cd4e420270b5ea74000d11b0c9f74754ebdbfc544b05a258610d913390565b6104ea6111ef565b6110cb82826107db565b61056e576110e3816001600160a01b03166014611235565b6110ee836020611235565b6040516020016110ff9291906115a7565b60408051601f198184030181529082905262461bcd60e51b825261055b9160040161161c565b60975460ff1661104b5760405162461bcd60e51b815260206004820152601460248201527314185d5cd8589b194e881b9bdd081c185d5cd95960621b604482015260640161055b565b600054610100900460ff166111955760405162461bcd60e51b815260040161055b9061164f565b81516111a89060369060208501906113d8565b5080516104ea9060379060208401906113d8565b600054610100900460ff166111e35760405162461bcd60e51b815260040161055b9061164f565b6097805460ff19169055565b60975460ff161561104b5760405162461bcd60e51b815260206004820152601060248201526f14185d5cd8589b194e881c185d5cd95960821b604482015260640161055b565b606060006112448360026116b2565b61124f90600261169a565b67ffffffffffffffff81111561126757611267611792565b6040519080825280601f01601f191660200182016040528015611291576020820181803683370190505b509050600360fc1b816000815181106112ac576112ac61177c565b60200101906001600160f81b031916908160001a905350600f60fb1b816001815181106112db576112db61177c565b60200101906001600160f81b031916908160001a90535060006112ff8460026116b2565b61130a90600161169a565b90505b6001811115611382576f181899199a1a9b1b9c1cb0b131b232b360811b85600f166010811061133e5761133e61177c565b1a60f81b8282815181106113545761135461177c565b60200101906001600160f81b031916908160001a90535060049490941c9361137b81611714565b905061130d565b5083156113d15760405162461bcd60e51b815260206004820181905260248201527f537472696e67733a20686578206c656e67746820696e73756666696369656e74604482015260640161055b565b9392505050565b8280546113e49061172b565b90600052602060002090601f016020900481019282611406576000855561144c565b82601f1061141f57805160ff191683800117855561144c565b8280016001018555821561144c579182015b8281111561144c578251825591602001919060010190611431565b5061145892915061145c565b5090565b5b80821115611458576000815560010161145d565b80356001600160a01b038116811461148857600080fd5b919050565b60006020828403121561149f57600080fd5b6113d182611471565b600080604083850312156114bb57600080fd5b6114c483611471565b91506114d260208401611471565b90509250929050565b6000806000606084860312156114f057600080fd5b6114f984611471565b925061150760208501611471565b9150604084013590509250925092565b6000806040838503121561152a57600080fd5b61153383611471565b946020939093013593505050565b60006020828403121561155357600080fd5b5035919050565b6000806040838503121561156d57600080fd5b823591506114d260208401611471565b60006020828403121561158f57600080fd5b81356001600160e01b0319811681146113d157600080fd5b7f416363657373436f6e74726f6c3a206163636f756e74200000000000000000008152600083516115df8160178501602088016116e8565b7001034b99036b4b9b9b4b733903937b6329607d1b60179184019182015283516116108160288401602088016116e8565b01602801949350505050565b602081526000825180602084015261163b8160408501602087016116e8565b601f01601f19169190910160400192915050565b6020808252602b908201527f496e697469616c697a61626c653a20636f6e7472616374206973206e6f74206960408201526a6e697469616c697a696e6760a81b606082015260800190565b600082198211156116ad576116ad611766565b500190565b60008160001904831182151516156116cc576116cc611766565b500290565b6000828210156116e3576116e3611766565b500390565b60005b838110156117035781810151838201526020016116eb565b83811115610a865750506000910152565b60008161172357611723611766565b506000190190565b600181811c9082168061173f57607f821691505b6020821081141561176057634e487b7160e01b600052602260045260246000fd5b50919050565b634e487b7160e01b600052601160045260246000fd5b634e487b7160e01b600052603260045260246000fd5b634e487b7160e01b600052604160045260246000fdfe65d7a28e3265b37a6474929f336521b332c1681b933f6cb9f3376673440d862aa2646970667358221220aea532f2c28280f844962bc58ec7f5549eda503e83e12e1fe8e02f36e85a9c0e64736f6c63430008060033",
  "linkReferences": {},
  "deployedLinkReferences": {}
}